:020000040800F2
:10000000980800208D010008AD2B0008C3290008C6
:1000100000000000000000000000000000000000E0
:10002000000000000000000000000000B12B0008EC
:100030000000000000000000AF2B0008B32B0008F8
:100040009F0100089F0100089F0100089F01000810
:100050009F0100089F0100089F0100089F01000800
:10006000000000009F0100089F0100089F01000898
:100070009F0100089F0100089F0100089F010008E0
:100080009F0100089F0100089F0100089F010008D0
:10009000000000009F0100089F0100089F01000868
:1000A0009F0100089F0100089F0100089F010008B0
:1000B0009F0100089F0100080000000000000000F0
:1000C00000F002F800F053F80CA030C808382418EB
:1000D0002D18A246671EAB4654465D46AC4201D180
:1000E00000F045F87E460F3E0FCCB646012633425F
:1000F00000D0FB1AA246AB4633431847A436000093
:10010000C4360000103A02D378C878C1FAD8520732
:1001100001D330C830C101D504680C6070470000BD
:100120000023002400250026103A01D378C1FBD813
:10013000520700D330C100D50B60704710B5662957
:1001400002D103F07FFA10BD642902D100F0D0F88B
:1001500010BD002010BD1FB500F058FE04000020A7
:10016000002103F0D5F9E0601FBD10B510BD01F00E
:1001700023FA1146FFF7EFFF03F02CF901F03BFAE9
:1001800003B4FFF7F2FF03BC01F0B2FA074880475F
:1001900007480047FEE7FEE7FEE7FEE7FEE7FEE76B
:1001A00004480549054A064B70470000152C000815
:1001B000C100000898020020980800209804002040
:1001C00098040020FEB5054610460C46184373D02F
:1001D000AE468C460020AD1A01469C4167D3664668
:1001E000002701243D46B61A9D4102D313463A46E4
:1001F0002124654676462F04360C3E432D0CB61A54
:100200009D4104D3150C1B042B4312041034654686
:1002100076462F06360A3E432D0AB61A9D4104D370
:10022000150E1B022B4312020834654676462F0733
:1002300036093E432D09B61A9D4104D3150F1B0103
:100240002B431201241D65467646AF07B6083E4390
:10025000AD08B61A9D4104D3950F9B002B43920025
:10026000A41C65467646EF0776083E436D08B61A2D
:100270009D411AD392185B41641C16E00018764623
:1002800065464941B71A9D410191009009D36046E6
:10029000B11A98418E468446009801990025401C69
:1002A0006941DD0752082A435B08641EE6D57246A1
:1002B000634603B0F0BDFFE700200146C046C046DC
:1002C0002A462346F5E700000FB41CB5074B06AAE3
:1002D0007B4469460090059800F039FD002069468E
:1002E00000F048FD1CBC08BC04B01847A10A00007F
:1002F000F7B5002575291068009914A611D0C046DD
:10030000C046002802DA404211A608E000990968B8
:100310008A0701D50FA602E0490704D50EA60125DC
:1003200001E0C046C046009F0024243704E000F0EE
:1003300026FD30313955641C0028F8D12B46324651
:100340002146009800F099FAFEBD00000000000070
:100350002D0000002B00000020000000F3B5044633
:10036000002081B020622046E168884700287AD0CA
:10037000252802D06268A16871E0E1682046002566
:10038000884706460020E0610746A0612A2E0AD071
:10039000304602F021FF002827D0B8000019303E77
:1003A0000090866119E00298BA00121902C89161A2
:1003B00002902046E1688847012F064617D1E06980
:1003C00000281FDA202085431CE000980A2180695C
:1003D000484300998019303888612046E168884791
:1003E000064602F0F9FE0028EFD1012F0AD02E2E8A
:1003F00008D12046E16888470646202005437F1C37
:10040000022FC3DBA069002803DA4042A06101206B
:100410000543E80701D010208543002E23D0304645
:100420004138192803D80120C00205432036204650
:1004300025603146029A1546FFF780FE00280BD052
:10044000012806D0ED1DE808C000083002908AE7B8
:1004500009E02D1D029586E762683046A168904745
:10046000206A401C7EE7206AFEBD000030B5441CB7
:1004700003E00178401C00290DD08107F9D10B4B16
:10048000DD0104C8D11A91432940FAD0001B0A06A5
:1004900003D0C01E30BD001B30BD0A0401D0801E39
:1004A00030BD0902FCD0401E30BD00000101010139
:1004B000421E5378521C002BFBD10B78491C137041
:1004C000521C002BF9D1704701E004C0091F042918
:1004D000FBD28B0701D50280801CC90700D00270B7
:1004E000704700290BD0C30702D00270401C491E80
:1004F000022904D3830702D50280801C891EE3E70A
:100500000022EEE70022DFE7002203098B422CD312
:10051000030A8B4211D300239C464EE003460B4353
:100520003CD4002243088B4231D303098B421CD3B5
:10053000030A8B4201D394463FE0C3098B4201D3A7
:10054000CB01C01A524183098B4201D38B01C01ADF
:10055000524143098B4201D34B01C01A5241030956
:100560008B4201D30B01C01A5241C3088B4201D305
:10057000CB00C01A524183088B4201D38B00C01AB2
:10058000524143088B4201D34B00C01A5241411AD9
:1005900000D201465241104670475DE0CA0F00D0BC
:1005A0004942031000D34042534000229C460309B5
:1005B0008B422DD3030A8B4212D3FC22890112BA3B
:1005C000030A8B420CD3890192118B4208D3890113
:1005D00092118B4204D389013AD0921100E089092B
:1005E000C3098B4201D3CB01C01A524183098B420C
:1005F00001D38B01C01A524143098B4201D34B01F5
:10060000C01A524103098B4201D30B01C01A524157
:10061000C3088B4201D3CB00C01A524183088B42DE
:1006200001D38B00C01A5241D9D243088B4201D367
:100630004B00C01A5241411A00D201466346524152
:100640005B10104601D34042002B00D54942704751
:1006500063465B1000D3404201B50020C046C0464F
:1006600002BD7047704770470121C9050123411839
:1006700042001B06D3185B0E0AD0C1100722D20617
:10068000891840075242D14201D55200891870475B
:10069000090208D50146002A03D0C10FC90700206E
:1006A000704710467047420202D00020024970474E
:1006B000072109050143F4E70000F87FF0B5FF25A5
:1006C0002D04C609C209FF2704462E400137CB0975
:1006D0003E4348402A402B400746002A6BD0002B5F
:1006E00069D0AA4267D0AB4265D0002800DA324612
:1006F0000125ED0529432C4309022002090AD21ADB
:100700004B0C7F24E31A434C000A7C44E35C7D24B9
:100710002404121914145B00A218884201D3521C3D
:1007200000E0400049420C465C4324115C43DB017D
:100730006415E318040A5C43C502200D0C464443CB
:100740006419250A5D432303EC0C0D466543000341
:100750000019EB184C42A34201D35B18401CD4058E
:100760002018002B07D05B00C91804D3401C0029B7
:1007700001D1400840003F2189048A4209D3002A60
:1007800008DC1106090F04D0032149074018C00FE7
:10079000C007F0BD01224100120689187F225206CF
:1007A0009142F6D205214907C84201D59010F0BD0B
:1007B000FF20C005F0BD002F00DA32461648AA42DD
:1007C00007D2AB4205D21902090E17D0F80FC007A5
:1007D000F0BDFF2563002D06AB42F9D84900A942C0
:1007E000F6D8AB4201D1A942F2D0A94201D10021F1
:1007F00001E061004908D0050843F0BD1102090E6F
:10080000FBD0FF200243D005F0BD0A46014610464A
:1008100054E70000BE2F00000000C07F1F22030C21
:1008200002D10F2200041CD0030E01D10002083AAD
:10083000030F01D10001121F830F01D18000921E0E
:10084000002801DB4000521ED20551180212511837
:100850001922904004D3491C002801D149084900BD
:1008600008467047C10FC90700D0404201229207D5
:100870001143D3E701218907D0E7FFB504460D46B0
:1008800081B0243000902168880604D51022E069E8
:100890009143216000E00120A84201DD471B00E0F8
:1008A00000270498A1697A191018081AA061207805
:1008B000C00602D42046C046C046002608E0039881
:1008C0006268A168805D9047206A401C761C2062A7
:1008D00004988642F3DB2078C0060AD52046C0463D
:1008E000C04606E06268A16830209047206A401C3C
:1008F000206238467F1E0028F4DC07E0009862681A
:10090000A168405D9047206A401C206228466D1E09
:100910000028F3DC2046C046C0462078000602D5F9
:10092000022005B0F0BD0120FBE700007047FFB5D5
:100930000C461E468FB003CA089009914F007D0DEA
:1009400000D16D1E002108460020C0460321099AEF
:1009500089050840002A03DA820080184008084010
:10096000800D01280A9002DD0020C0430A900898FB
:1009700007430DD0F048F149281848430714189848
:1009800000281DD07542291E1DDD0A9842421BE039
:100990001898012802D00020302104E00020F24302
:1009A00005E02154401CB042FBDB30460022189B7E
:1009B000002121540F998B600A60486013B0F0BD8C
:1009C000BD1B6D1CDFE70A9A002900DA69420BA8FB
:1009D00000F0A2FA0BAB07CB03AB07C30899099849
:1009E00000F006FB6B4607C30146D5480918002DE9
:1009F00000910BDDD24903980A9A4942401800231E
:100A000003A90390684600F063FD08E003990A9A81
:100A10000023081803A90390684600F003FD6B4605
:100A200007C30004000C03D00020C043410800E0CD
:100A30001046189A002A03D00022009215461EE0A4
:100A4000751E05D400F0E6F9303262556D1EF9D5F9
:100A500001220843079602D000227F1C04E0207880
:100A6000302801D100227F1E002A069787D01EE081
:100A7000112D07DA00F0CEF9303262556D1C0246B6
:100A80000A43F5D1084303D00098002819D00EE09E
:100A90000021681E05E0235C625C63542254401E02
:100AA000491C8142F7DBA81B401E07950690079A58
:100AB00018990020A0540F98079B069A81600CC0DB
:100AC0007CE711260020189059E7D21DF0B50D469D
:100AD0000446D10893B0C90003C90C900D9102F0EF
:100AE00043FB02460D98C00F01D02D2007E020687F
:100AF000810701D52B2002E04007C00F4001032AE7
:100B00000F9001D0072A05DB03462946204600F056
:100B1000BFF90EE12078800601D5E76900E00627DD
:100B20002846652D04D0662814D0672D69D12DE0A4
:100B30000020112F009001DB112300E07B1C0CAA88
:100B400003A910A8FFF7F3FE1199002610987D1C49
:100B50000E9142E001203B460CAAC0070B900120F9
:100B6000009003A910A8FFF7E2FE119D12981099BA
:100B7000002600280E9501D1781C0D18781B02D490
:100B800046427D1C761EE81B00903AE0012F00DAF9
:100B900001270020112F009001DD112300E03B46CA
:100BA0000CAA03A910A8FFF7C2FE11993D461098A0
:100BB00000260E91217809070BD40E99A94200DA7C
:100BC0000D4603A9012D04DD4A19203AD27F302AAF
:100BD00006D0B84201DA011D04DA012100910FE0CC
:100BE0006D1EEFE7002802DC86192D1A03E0411C78
:100BF000A94200DD0D46801B401C00900120C0076B
:100C00000B902078000705D40098A84202DB002052
:100C1000C043009069460020C8720B98012102AFC2
:100C20000337C907884225D0022010902B2011904D
:100C30000B9800280BDA40420B902D20119006E013
:100C40000B9800F09CF830317F1E0B903970109992
:100C5000481E00291090F3DC0B980028F0D1119861
:100C60007F1E38702088000501D5452000E06520F2
:100C70007F1E387001A8C01BC01D0B900F98002864
:100C800000D0012041190098C01709180B980818C6
:100C9000A169081A401EA0612078C00602D420462F
:100CA000C046C0460F98002805D06268A1689047EA
:100CB000206A401C20622078C00625D52046C04608
:100CC000C04621E0002E07DB0E98B04204DD03A8E9
:100CD0006268805DA16802E06268A1683020904788
:100CE000206A761C401C20620098401E002800905C
:100CF0000AD100F08BF8C06862680168405CA168A6
:100D00009047206A401C206228466D1E0028D9DCCE
:100D100007E062683878A1687F1C9047206A401C11
:100D200020620B99481E00290B90F2DC2046C04639
:100D3000C046032042E6000001FCFFFF104D00000A
:100D4000E1DFFFFF01694A1C02610878704700B5C6
:100D50008FB00291002105910549019379440391D7
:100D6000114604906846FFF7F9FA0FB000BD000085
:100D7000E5FFFFFF0A681070521C0A6070470146C9
:100D80008008081A02091018020A1018020C10181C
:100D9000C008820012185200891A01E0401C0A396A
:100DA0000A29FBD27047000010B5FF231B06440040
:100DB0009C421DD84C009C421AD80346124A0B4351
:100DC00007D4401A02D3EFF3008010BDEFF3008088
:100DD00010BD081A06D2EFF3008001219043C90725
:100DE000084302E0EFF30080904380F3008810BDD9
:100DF0000D231B041A4204D01146002000F0B8FB5A
:100E000010BD00F0CDFB10BD000000900048704701
:100E1000540200200B4670B502468907800808433B
:100E200019469D08141AA941250908070543080910
:100E30002C194841250A01060D43010A2C1941418C
:100E4000200C0D0428430D0C00194D4100214019C0
:100E50004D41C00869070843E908840F8D00254308
:100E6000840024184D4124196D41121BAB4107E049
:100E70000925ED432C11521963410024401C6141A6
:100E80001C460A250026551BB441F1D270BD000056
:100E9000F8B51F46044601230068DB02032601461D
:100EA0001840072A05DB002801D017A506E017A582
:100EB00004E0002801D016A500E016A5102081430B
:100EC0002160A069C01E002FA06101D0401EA0615A
:100ED0002046C046C046002F09D038466268A16847
:100EE0009047206A401C2062C01C206206E0206AF5
:100EF000FAE762682878A1686D1C9047761EF8D2E0
:100F00002046C046C046F8BD4E414E006E616E00A0
:100F1000494E4600696E6600F7B516468AB03348FA
:100F200078446C4603467C33C06F5A689B680DC496
:100F30002E487844763003AC0DC80DC43720C0016C
:100F4000081837211B30FFF7E9FA05460C46803DAB
:100F50001B3C02D56442012000E0002000270990DC
:100F600010E0E0070CD00C20204978437944324649
:100F70004C3941186846012300F054FA6B4607C308
:100F800064107F1C002CECD1184F7F442E3F16E0DC
:100F9000E80712D02001C0190EC8069108930792E5
:100FA0000068F04201D1981908903246012306A941
:100FB00003A800F037FA03AB07C36D10641C002DC3
:100FC000E6D10998002806D032466946012303A8D5
:100FD00000F07EFA05E001233246694603A800F0DE
:100FE00021FA0A9B07C30DB0F0BD0000E8270000FE
:100FF000034640000A4610B5400D0BD00121C90739
:101000000F24A40200191C0364082143540D21433A
:10101000D20207E000210120F2E7D40F490021436A
:101020005200401E0029F8DADB0FDB07184310BD21
:10103000FFB50D46144685B04868516802F06FF858
:1010400000910190A868A16802F069F802910390EC
:10105000A868616802F063F8029A1218824202924C
:1010600001D2012000E00020019A0B18D2180028BC
:10107000019202D08A4202D903E08A4201D20120C1
:1010800000E000200099081800906868A16802F04C
:1010900046F8029A12188242029201D2012000E020
:1010A0000020019A0B18D2180028019202D08A421F
:1010B00002D903E08A4201D2012000E00020009919
:1010C0000818009028682168400049004008490835
:1010D0004018FA49471814E001994000C90F084325
:1010E0000090019802994000C90F084301900298AE
:1010F00003994000C90F08430290039840007F1EE7
:10110000039000980028E7DA0898002801D0EC4EF8
:1011100000E00026B74201DA012000E000200028AC
:1011200004902AD0F71BF806C00E15D0029B202190
:10113000091A039A8B401A430392029A019BC240F8
:101140008B401A430292019A009BC2408B40009947
:101150001A430192C14000917B110DD06F460320CC
:10116000C11A03D500218200B95003E08A00810032
:10117000BA587A50401EF3D5374603980299002892
:1011800000D00120014308980291002808460CD0A5
:10119000002800D001200199019A49050843012146
:1011A000D20AC902D202019200E001210E9B012263
:1011B000D207012B02D0002B03D013E0002807D167
:1011C00020E0904204D890420CD1019B0B4209D000
:1011D000019B5918019105D10099491C009101D139
:1011E0007F1C009200280DD0102108460020C04628
:1011F0000498002806D00F98002803D0082108463C
:101200000020C04628682168019B009A4840C10F11
:101210000598C90739430EC009B0F0BDFFB587B0C6
:10122000099A0898089953689268406889689646B0
:101230000022039317469446089A12685300099AAD
:101240005B081268520052089A1A9E4BD4180A9AE8
:10125000002A01D0352200E040220692002201231C
:1012600015460492DB07059324E0002D05D1754651
:101270000346039E4D1BB34109D375466646039B47
:10128000491B049D9841059B7519AC465F41634617
:101290003B4308D0059B049EDD0776082E435B0880
:1012A0000496059301E0521E641EC50FED07491810
:1012B0004041521C069B9A42D7DB002D04D1754653
:1012C000039A6B1A824101D203200CE0039A0B4669
:1012D0006B404240134303D0014303D0012002E09E
:1012E000022000E000206146019100210097029158
:1012F0000A99002905D0614640020143704B0191D3
:1013000002E08007002302909C4201DA012000E005
:10131000002007003AD01A1BD006C00E15D0029D3F
:101320002021019C091AC5408C402543029C8C4019
:1013300000D001242543019C0295009DC4408D40AE
:1013400000992C430194C140009154111DD06D4669
:101350000221002202290CD10320001B07E00028F3
:1013600004DB8600AE59002E00D00122401C032869
:10137000F5DB081B02D588002A5004E080002858BD
:1013800010438A00A850491EE3D51C460A9800283D
:1013900002980CD0002800D001200199019A49053B
:1013A00008430121D20AC902D202019200E00121C0
:1013B000109B0122D207012B02D0002B03D013E097
:1013C000002807D11FE0904204D890420CD1019B25
:1013D0000B4209D0019B5918019105D10099491C74
:1013E000009101D1641C009200280CD01021084605
:1013F0000020C046002F06D01198002803D00821F5
:1014000008460020C04608980999019A009B006888
:1014100009684840C10F0798C907214382600AC084
:101420000BB0F0BD00B585B0019300920A460146AD
:10143000002302A8FFF7FCFD02A807C805B000BD05
:10144000FFB50A461F4685B0079901930123009115
:10145000014602A8FFF7ECFD02990398049ECA0F0B
:101460004900D20700920F22490892028C1A0021EB
:10147000002800DB0C46450013486D08844214D355
:10148000079A002A04DA441E0026104DF64302E0B3
:1014900004460D460E46102108460020C046002F87
:1014A00003D0042108460020C0462005E90A08436D
:1014B000009908436905F20A1143ADE602C0FFFF37
:1014C000013C0000FF3F0000FF070000FFFFFF7F1F
:1014D00000B585B0019300920A460146002302A898
:1014E000FFF79CFE02A807C8A8E7FFB50A461F46FB
:1014F00085B00799019301230091014602A8FFF7E7
:101500008DFE02990398049ECA0F4900D2070092EB
:101510000F22490892028C1A0021002800DB0C4699
:10152000450011486D08844214D3079A002A04DA52
:10153000441E00260D4DF64302E004460D460E46BD
:10154000102108460020C046002F03D00421084681
:101550000020C0462005E90A0843009908436905B0
:10156000F20A114358E60000FF070000FFFFFF7F6B
:10157000C80212D54803400F002804D0C803C04356
:10158000012188407047EFF300800001000903212A
:101590000907084380F30088704700207047000067
:1015A00010B5024800F074F810BD00000000C07FC4
:1015B00000487047340200207546FFF7F9FFAE4639
:1015C000050069465346C008C000854618B020B5DE
:1015D000FEF7E6FD60BC00274908B6460026C0C5F8
:1015E000C0C5C0C5C0C5C0C5C0C5C0C5C0C5403DDB
:1015F00049008D46704710B50446C046C046204697
:10160000FEF7BEFD10BD0000024670B50A4392070A
:101610002AD11E4DEE0104C808C9541B944334401E
:1016200017D0D0B2D9B2401A2106014310D190B2DE
:1016300099B2401A210401430AD110021902000A8A
:10164000090A401A2102014302D1100E190E401A54
:1016500070BD9A42DFD010BA19BA884201D9012070
:1016600070BD0020C04370BD02780B78401C491C3F
:10167000002A09D09A4207D102780B78401C491CF5
:10168000002A01D09A42EFD0D01A70BD01010101A9
:1016900010B50C461107090F092904D00A290AD0F0
:1016A00008290CD104E011460820FFF761FF06E08D
:1016B000510606D501E0510601D50120C00721469B
:1016C00010BDD10607D501010909CC084907000E54
:1016D0000006044309E0410F20024907000A0143C4
:1016E000200E00061D22D14101430846E7E7000015
:1016F00001491820ABBEFEE726000200704700003B
:10170000F8B5044600200090206801F05BF900283D
:1017100045D120688168234A10261140002930D124
:101720008168D5432940491C81601F480068072112
:101730008905084000020AD51D481C490068FEF7CB
:10174000E3FE401C00E0401E00900028FBD1607EBC
:10175000012824D000F0CEFB07461BE001F032F94F
:10176000002804D1206881682940491C816000F06C
:10177000C1FBC01B02280DD920680068C043C00708
:1017800008D0A06D3043A065E06D01210843E065FD
:101790000846F8BD20680168C943C907DED10020AA
:1017A000F8BD00001700008008270140400D03002D
:1017B0000C00002072B6FEE7F8B500270646044686
:1017C00040360097307D0D4601280FD0012030753E
:1017D000206801F0FBF800280AD0A06D2021084302
:1017E000A0650127002030753846F8BD0220F8BDFD
:1017F000686802287ED001222169D207914202D076
:10180000121D914206D120682968826A4903490B5A
:101810000A436EE0C206D20E0F20216E9040814333
:101820002868430302D0C3074BD102E04000C00E3A
:1018300048E0830701D5012044E0430701D5022099
:1018400040E0030701D503203CE0C30601D5042096
:1018500038E0830601D5052034E0430601D5062093
:1018600030E0030601D507202CE0C30501D5082090
:1018700028E0830501D5092024E0430501D50A208D
:1018800020E0030501D50B201CE0C30401D50C208A
:1018900018E0830401D50D2014E0430401D50E2087
:1018A00010E0030401D50F200CE0C30301D5102084
:1018B00008E0830301D5112004E0400301D5122084
:1018C00000E000209040014321666968E2698808D1
:1018D000401C904210D820682B68826A9C46C9063A
:1018E000C90E0F238B409A4363469B001B0F8B400E
:1018F0001A4300E03BE082622168AB6828684A69CD
:101900000002824318404001400902434A612868AE
:10191000002800DB66E72B4A116807239B05194066
:10192000294B984214D10B0212D4C0020143104635
:1019300001F058F8264825490068FEF7E5FD0C211E
:10194000401C484300E0401E00900028FBD149E7BE
:10195000204B984203D1CB0101D4800205E01E4BFD
:101960009842D7D14802D5D45802014325E001213D
:101970002069C907884202D0091D884206D1206823
:101980002968826A4903490B8A43826228680028D1
:10199000C0DA0C4A116807239B0519400A4B98428C
:1019A00001D1C00208E00B4B984201D1800203E054
:1019B000094B9842AED140028143104601F012F823
:1019C00010E7000008270140001000B0400D0300A0
:1019D0000C000020004000B8002000B40068006C3B
:1019E00070470000FEB50027044601973E46029767
:1019F0000097002805D02546A06D2035002802D08C
:101A000007E00120FEBD204600F0FCF8E66554200A
:101A1000065520688168C900C90F12D18168724AD1
:101A20001140012212071143816071486F4900681B
:101A3000FEF76AFD4000801C00E0401E0090002878
:101A4000FBD120688168C900C90F08D1A16D10229F
:101A50001143A165E16D01221143E165174600F0D4
:101A6000B5FFA16DC90601D4002804D0A06D1021D6
:101A70000843A065B4E0A06DFF2101318843022135
:101A80000843A065206800F09DFF00286DD1217EED
:101A9000A06889030843617ECA03A17E4B031A43F1
:101AA0001043226B002A01D0012212031043E26886
:101AB00010432269002A02DA5200520801E0012292
:101AC000520510432A7B52001043019A10432A7892
:101AD000012A09D1002922D0A16D20221143A1653C
:101AE000E16D01221143E165616A002906D0FF23FF
:101AF000C1331940A26A0143104608432168CA68ED
:101B00003C4B1A400243CA606168029A890F8907F8
:101B1000E06C0A4310432A7F012A04D00CE0012123
:101B200009040843E0E7636C226C491C1A43A36C68
:101B30000B4311461943084321680A692E4B1A408A
:101B400002430A6103216068890788420DD0590762
:101B500088420AD04900884207D0284A91680F235A
:101B60009B0499431840014391600021626B2068F7
:101B700000F03FFF2249A26B206800F03AFF0F20DF
:101B80002169C04300291CD00122520591420AD18B
:101B900021688A6A227F9200121FD206D20E9040DC
:101BA000226E1043886220684069616B4007400FD5
:101BB00088420BD1E665A06D80088000401CA065BE
:101BC0000FE021688A6A02438A62ECE7A06D022175
:101BD000884310210843A065E06D01210843E065BA
:101BE00001273846FEBD0000E8FFFF7F400D0300DF
:101BF0000C0000200102FEFF02FCFF1F0027014035
:101C000004FFFF0710B586B0044614216846FEF7AE
:101C100079FC1149206888421BD1104802680121D3
:101C200009050A4302600068084005900B484038E7
:101C3000426B01210A434263406B009108400590CA
:101C4000032001900020029005206946000700F063
:101C50009DF806B010BD0000002401404010024075
:101C6000F8B5044640690D46082809D02068C068C8
:101C7000C00707D0A06D20210843A0650120F8BD52
:101C8000082600E0042600F035F9074615E0681C38
:101C900013D000F02FF9C01BA84201D8002D0CD1A1
:101CA00020680068304208D1A06D04210843A06577
:101CB0000020403420750320F8BD206800683042C1
:101CC000E5D0A06D012149020843A065206800F01D
:101CD00081FE0C25002812D0A07E00280FD120689C
:101CE000016809070BD500F071FE012100280AD018
:101CF000A06D20221043A065E06D0843E065207EC2
:101D000000280BD00CE020684268AA434260A06D16
:101D1000FF22013290430843A065F0E72068056088
:101D20000020F8BD70B50446006800F04FFE0028A2
:101D300002D00221084670BD25464035287D012885
:101D40000AD0012028752046FFF7DAFC0146002062
:101D5000002903D02875EDE7022070BDA26D094B64
:101D60001A40FF2301331A43A265E06523681C2251
:101D70001A60287520688268034B1A40121D826021
:101D8000D8E70000FEF1FFFFE8FFFF7FF0B500237A
:101D900003249AE02A4601259D402A407ED00E79F0
:101DA000B607B60F012E01D0022E16D1866827463F
:101DB000B4465E00B646B7406646BE43B446CF68FA
:101DC0007646B7406646374387604668AE430D792E
:101DD000ED06ED0F9D40354345600D79ED43AD07B0
:101DE00008D0C5685F002646BE40B5438E68BE4039
:101DF0002E43C6600D79AD07AD0F022D0ED1DD0863
:101E0000AD002D18AC462D6A5E07F60E0F27B740C1
:101E1000BD430F69B7402F4365462F6205685F00D9
:101E20002646BE40B5430E79B607B60FBE402E43D8
:101E300006604D68AD03AD0F46D09E08264DB60036
:101E40007519AC462D6E9E07F60E0F27B740BD43A1
:101E500005273F07B84201D100270FE01F4FB842C6
:101E600001D101270AE01E4FB84201D1022705E047
:101E70001C4FB84201D1032700E00527B7402F438C
:101E8000154D664637662D684E689543F60200D5B7
:101E90001543114F3D607D68954300E014E04E68A6
:101EA000B60200D515437D600B4D80356E684F68D6
:101EB0009643BF0300D516436E602E684F68964365
:101EC000FF0300D516432E605B1C0A681546DA40F6
:101ED00000D05FE7F0BD0000001802400004005091
:101EE00000080050000C0050002A01D081617047AA
:101EF0008162704701488068704700000000002040
:101F000002488168027889188160704700000020CB
:101F100010B508480024016882151143016020466D
:101F200000F00AF8002801D0012401E000F028F8B0
:101F3000204610BD0020024070B50F4E00243178BD
:101F40000546002915D07D20C000FEF7DDFA0146C8
:101F50000A480068FEF7D8FA00F04CFB002808D1C8
:101F6000042D06D200222946401E00F01FF875609D
:101F700000E00124204670BD000000200C0000207D
:101F800008B509480168012211430160006810404A
:101F9000009005484038C26B01040A43C263C06B1D
:101FA0000840009008BD00004010024010B501F04C
:101FB000F1F810BD10B50F4C216803225202914375
:101FC00001432160C11FFF39FA390ED10A480621A9
:101FD000006848430949FEF797FA401C02E00028D0
:101FE00005D0401E61694905F9D4002010BD0320C9
:101FF00010BD0000007000400C00002040420F00A7
:10200000F8B50F46060043D04D4D28684007400FF5
:10201000B84213D22868C008C00038432860FFF7D0
:1020200069FF044605E0FFF765FF011B4548814253
:1020300061D828684007400FB842F4D13068424C5C
:1020400081070DD5400704D5A0680721090308437F
:10205000A060A0680F2109028843B1680843A0600E
:102060003078C00732D0706801280AD002280BD01F
:1020700000280FD03449403103280ED0C9698907A0
:1020800004E02168890301E021688901002906DB59
:102090000120F8BD21684905F8E7096AEFE7A16862
:1020A000C908C9000143A160FFF724FF009006E0C2
:1020B000FFF720FF0099411A224881421BD8A068EF
:1020C000382108407168C9008842F1D1286840076A
:1020D000400FB84217D91A480168C908C9003943E6
:1020E0000160FFF707FF054607E0FFF703FF411B0D
:1020F0001448814201D90320F8BD11480068400707
:10210000400FB842F1D13078400706D5A0680721CA
:1021100009038843F1680843A06000F031F8A16822
:102120003C2289091140094A515CC906C90EC840C0
:102130000749086007480068FFF7FEFEF8BD000089
:102140000020024088130000001002406C36000896
:102150000C00002004000020064807490068896838
:10216000064A4904490F8900515CC906C90EC84096
:10217000704700000C00002000100240AC36000840
:1021800010B5204CA068204A8006400F16D0A068E9
:102190008006410F501001290FD0A1688906490F10
:1021A000022912D0A0688006400F042823D0A0681E
:1021B0008006400F032821D0002010BD2068012197
:1021C0008004400F8140104612E0E1688B07E1680F
:1021D0009B0F4906490F491C032B00D01046FEF700
:1021E00093F9E1684904490E4843E168490F491CE5
:1021F000FEF78AF910BD0120C00310BD7D2000024A
:1022000010BD0000001002400024F400F8B50400E6
:102210007ED020783827C007ED4D002846D0A8682A
:10222000E96838408907890F102802D008280BD0A8
:1022300001E0032908D001206268000482420AD12B
:1022400029680143296015E0286880032ED560685D
:102250000028DDD02AE0052301211B0489049A42CD
:102260002A6802D10A432A60EAE782432A60286882
:1022700088432860606800280CD0FFF73BFE0646C4
:1022800004E0FFF737FE801B642873D828688003BA
:10229000F7D50BE0FFF72EFE064604E0FFF72AFE17
:1022A000801B6428F1D828688003F7D42078800741
:1022B00069D5A868E96838408A070721920FC902E2
:1022C000102802D0002813D001E0022A10D0E068C4
:1022D000002846D028688843216908432860286878
:1022E000FF21013108432860FFF704FE06462CE079
:1022F0002A68520502D5E268002A89D06A687F23DD
:102300001B029A4363691B021A436A60002800E0BB
:102310008DE00ED128688843216908432860286829
:1023200001218004400F8140AA48FEF7EDF8AA4938
:102330000860AA480068FFF7FFFD002877D122E077
:10234000FFF7D8FD801B02289FD828684005F7D5E5
:1023500068687F210902884361690902084368604F
:1023600011E02968FF20013081432960FFF7C2FD99
:10237000064605E098E0FFF7BDFD801B022884D8E3
:1023800028684005F7D42078954E00072ED5A86818
:102390008006400F03280AD0A0690028306A16D0B2
:1023A000012108433062FFF7A5FD07460BE0306AC4
:1023B00080071BD5A06900289FD017E0FFF79AFD82
:1023C000C01B022870D8306A8007F7D50EE040089D
:1023D00040003062FFF78EFD074604E0FFF78AFDFC
:1023E000C01B022860D8306A8007F7D420784007E5
:1023F0006CD5A86800278006400F042818D0E86B29
:10240000C00008D4E96B012000070143E963E96BD0
:1024100001400127009173480168C90519D401687A
:10242000821511430160FFF765FD00900DE083E028
:10243000F06980074AD5A06800287DD046E0FFF704
:1024400059FD0099401A02282ED866480068C00538
:10245000F5D5A168012910D004200529F16911D012
:1024600049084900F161F1698143F161A0680028E0
:1024700016D0FFF73FFD00900EE0F0690121084300
:10248000F061F3E70143F161F7E7FFF733FD0099EE
:10249000411A5548814267D8F0698007F5D50EE0AA
:1024A000FFF728FD009007E05EE0FFF723FD0099AD
:1024B000411A4D48814257D8F0698007F5D4002F62
:1024C00004D0E86B012109078843E863E06900282C
:1024D0007BD0A9688906490F02294FD0012636060C
:1024E0000228286805D0B0432860FFF703FD0446A2
:1024F0003CE0B0432860FFF7FDFC074604E0FFF72F
:10250000F9FCC01B02282FD828688001F7D4616A23
:10251000206AA26A0843E16A120211430843216B50
:102520000843616B0843E968304A11400843E8609A
:1025300028683043286000E045E0E8680121090789
:102540000843E860FFF7D6FC044604E0FFF7D2FC3E
:10255000001B022808D828688001F7D535E0FFF76E
:10256000C9FC001B022801D90320F8BD286880019E
:10257000F5D4E8681E490840E86026E00128F4D058
:10258000E868226A8107890F91421CD17021626A32
:102590000140914217D17F21A26A09020140120233
:1025A000914210D11F214904E26A014091420AD1AF
:1025B00007214906226B0140914204D1400F616B13
:1025C0004007884201D00120F8BD0020F8BD00007E
:1025D000001002400024F4000C0000200400002041
:1025E0004010024000700040881300008C80C11130
:1025F000FCFFFEEE094910B5401E884201D90120BA
:1026000010BD074C60610321081F00F0C3FD0020CE
:10261000A06107202061002010BD0000FFFFFF0027
:1026200000E000E0F0B5034620331A7F012A28D0ED
:1026300001221A7702225A7704686268A568124F4D
:10264000BC4205D116460F22120596434A68324312
:102650007026B2430E68164366600068B84206D022
:1026600001229207904202D0084A904204D180226F
:1026700089689543294381600120587700201877A5
:10268000F0BD0220F0BD0000002C0140000400401D
:1026900070B5040005D025462035687F002802D09B
:1026A00006E0012070BD00202877204600F016F8D3
:1026B00002206877211D206800F0AEFA0122403424
:1026C0002272AA77EA7722706270A270E270227199
:1026D0006271A271E2716A77002070BD08B500686E
:1026E0000549884207D10548C26B02210A43C263EB
:1026F000C06B0840009008BD00040040001002407C
:10270000014620314A7F012A01D001207047022270
:102710004A7700680B490122884205D09107884218
:1027200002D00949884207D18168084B194006291F
:1027300005D0DB1F994202D00168114301600020DF
:1027400070470000002C0140000400400700010019
:10275000F8B5054604462035287F0026012817D005
:1027600001272F7702206877226890682F4B184046
:10277000FF231B02984390600868502838D00EDC75
:1027800020284FD006DC00284CD010281ED149E06C
:102790000220F8BD302845D0402817D13AE0602803
:1027A0002ED0702818D001221203801A0FD0904228
:1027B0000CD1CB684A688968206800F06FFA2068FD
:1027C0008168012292031143816000E001266F7746
:1027D000002028773046F8BDCB684A6889682068B1
:1027E00000F05CFA21688868772210438860EEE781
:1027F000CA684968206800F067FA5021206806E03E
:10280000CA684968206800F070FA6021206800F00A
:1028100051FADCE7CA684968206800F055FA40219F
:102820002068F4E7226801461046F0E788FFCEFFF3
:1028300070B5040005D025468035A868002802D070
:1028400006E0012070BD00202871204600F026F827
:102850002420A860206801684908490001602046DA
:1028600000F0EEFA0128EDD0A06A002802D0204640
:1028700000F04EFA206841680922D202914341607B
:10288000206881682A2291438160206801680122C2
:1028900011430160204600F0A1FA70BD10B586B06A
:1028A000044614216846FDF72DFE11492068884230
:1028B0001CD11048C26B012149040A43C263C26B98
:1028C0000A400592426B01210A434263406B029128
:1028D000084005900C2000900220019000200390F9
:1028E0000491052069460007FFF750FA06B010BDB5
:1028F0000044004000100240FFB507460446803700
:10290000B86883B00D46202802D0022007B0F0BD81
:10291000002D0CD00598002809D00120A1680003E3
:10292000814206D12069002803D1E80701D00120A7
:10293000ECE7002038612120B860FFF7DBFA019056
:10294000264640360598B0820598F0820120A1689D
:102950000003814202D12069002802D0029500259F
:1029600015E00020029012E000228021204600F0B5
:102970006DFB002818D10298002817D02168007834
:1029800088620298401C0290F08A401EF082F08A11
:10299000019B002806980090E6D1002240212046A5
:1029A00000F054FB002808D00320AFE728882168F6
:1029B000C005C00D8862AD1CE6E72020B86000208D
:1029C000A4E7FEE78068C007C00F70478068400733
:1029D000C00F7047C0680005800F01D0002070470D
:1029E00001207047026807239B059A430A4302604F
:1029F000704710B543690424214007248C40A34349
:102A00008A401343436110BD3EB500241948009429
:102A100001941749029401608460C460090504614F
:102A200041600421416104764476847601250146A3
:102A30002031C56113220C7092014262AA028262A7
:102A40000C730463446384630C77C464FEF7CAFFA9
:102A5000002801D0FEF7AEFE0194694605480095B6
:102A60000294FEF7A9FE002801D0FEF7A3FE3EBDAA
:102A700000240140F0000020F0B587B01421684622
:102A8000FDF740FD1B48416B012529434163416B24
:102A900029400591426B02210A434263406B164C68
:102AA0000840052636070590002221463046FFF7EC
:102AB0001BFA124F0022F3213846FFF715FAFF21C7
:102AC000012205313846FFF70FFA009400240195E2
:102AD0000294694630460394FFF758F9FF20F83016
:102AE000009002946946019503943846FFF74EF929
:102AF00007B0F0BD00100240F29E0000000400503C
:102B000010B588B0002400940194174802940394EF
:102B1000049405941349069401600F218460416078
:102B2000046112498461C160FFF7B2FD002801D041
:102B3000FEF740FE01200003009069460A48FFF7B7
:102B400007FE002801D0FEF735FE2020049004A9DE
:102B500006940548FFF766FD002801D0FEF72AFE1F
:102B600008B010BD0004004054010020E70300003D
:102B700010B50D480B490160E12149024160002177
:102B80008160C16001618161C16101620C224162A9
:102B900042618162FFF74CFE002801D0FEF70AFE79
:102BA00010BD000000440040A0010020FEE7704777
:102BB000704710B5FFF7A4F910BD10B592B03821D9
:102BC0006846FDF79FFC002401200E940F9410949A
:102BD00040021194FFF7EEF902200090C00103902B
:102BE00040200590049407946846FFF70FFB0028E7
:102BF00001D072B6FEE707200E900F9410940021CA
:102C000011940EA8FFF7FCF9002801D072B6FEE778
:102C100012B010BD70470000F0B502681A4B0124D5
:102C2000A4071A4D984203D0A04201D0A84203D174
:102C30007026B2434E683243154E164F98420AD062
:102C4000A04208D0A84206D0134CA04203D0B04204
:102C500001D0B84204D103242402A243CC68224309
:102C60008024A2434C69224302608A68C2620A68D7
:102C70008262984203D0B04201D0B84201D10969C2
:102C8000016301214161F0BD002C014000040040BE
:102C900000440140004801400020004030B58468F5
:102CA000FF252D021B021343AC430B4323438360D8
:102CB00030BD00008268034B1A400A4307210A43D3
:102CC000826070478FFFCFFF30B5036A046A6408E3
:102CD000640004628469F025AC43120122430A2493
:102CE000A3430B438261036230BD30B5036A1024F5
:102CF000A34303628469036A0F252D031203AC43C7
:102D00002243A024A343090119438261016230BD1B
:102D100010B5018DC90707D001684A6801235B041B
:102D20009A43C36A1A434A60018D890707D501682F
:102D30004A6801231B049A43036B1A434A60018DBE
:102D4000490707D501684A6801239B049A43436BEE
:102D50001A434A60018D090707D501684A680123B3
:102D6000DB039A43836B1A434A60018DC90607D57A
:102D70000268916801231B039943C36B1943916057
:102D8000018D890607D501688A6801235B039A4390
:102D9000036C1A438A60018D490612D503685A688C
:102DA00001210905446C8A4322435A60426C8A42DD
:102DB00007D10268516803235B059943836C19436B
:102DC0005160018D090607D501684A680123DB04BB
:102DD000C06C9A4302434A6010BD0000FEB506462F
:102DE0000025803604463561FFF784F8019020689D
:102DF0000068124F000709D50121009700224905FC
:102E00002046019B00F022F900280DD120680068BF
:102E100040070BD501210097002289052046019B20
:102E200000F014F9002801D00320FEBD2020B0607E
:102E3000F060E566256735710020FEBDFFFFFF01EC
:102E4000F8B50446016880682369E5691843636939
:102E500000262B431843734A0B68734D2B400343E2
:102E60000B602068416803231B039943E3681943FF
:102E700041602168A069914201D0236A18438B68A0
:102E80006A4D2B4003438B602068C16A636A09095D
:102E900009011943C1626649236866488B420AD119
:102EA00040698007800F09D001282CD0022828D043
:102EB000032816D113E060498B4201D1002111E0B3
:102EC00093420ED141690320800201400AD00120C3
:102ED0008002091A17D0091A13D0814201D10821A2
:102EE00000E010210120554D554FC00393423DD1C4
:102EF00000290AD0022911D0042909D0082934D187
:102F00000BE00221EEE70421ECE7FFF725F901E0F1
:102F1000FFF736F9050001D179E00546606A400007
:102F2000395A28460091FDF7EFFA67687900791859
:102F3000814267D83903814264D300232846194669
:102F4000009AFDF73FF9020E0902030278081143C7
:102F50001818002251413A460023FDF733F90321A6
:102F60000902384A411A91424FD94BE0E269824244
:102F700027D1002906D0022907D0042907D0082923
:102F800040D108E0FFF7E8F803E0284603E0FFF748
:102F9000F7F800283BD0616A4900795AFDF7B4FA86
:102FA000616840004A088018FDF7AEFA0146264ADB
:102FB0001039914226D8511C01400007400F0843A8
:102FC00023E0002906D0022907D0042907D00829C8
:102FD00018D108E0FFF7C0F803E0284603E0FFF748
:102FE000CFF8002813D0616A4900795AFDF78CFAAE
:102FF00061684A088018FDF787FA0146124A1039BD
:10300000914201D9012602E080B22168C8602046C1
:10301000012140304185018500206067A06730466E
:10302000F8BD000000800040F369FFCFFFF4FF11FE
:103030000038014040100240004400400024F400E9
:1030400054360008FFFC0F00EFFF0000FFB581B011
:1030500005461746044680350A9E54E0701C52D03F
:10306000FEF748FF0499401AB0422FD8002E2DD009
:1030700020680168490746D5C069C043000542D4AD
:1030800001202168C0020862EFF31080012181F362
:10309000108821680B68FF22A13293430B6080F3F4
:1030A0001088EFF31080012181F3108821688A686D
:1030B000520852008A6080F310882020A860E860DF
:1030C000286100202871032005B0F0BDEFF31080C7
:1030D000012181F3108821680A68FF23A1339A43F4
:1030E0000A6080F31088EFF31080012181F31088CB
:1030F00021688A68520852008A6080F31088202074
:10310000A860E860DDE72068C1690298884304D0C0
:103110000020B842A2D00020D6E70120F9E7F8B598
:10312000040C8BB2264682B25E43104658430D0C07
:10313000370C360400218019164679416E43370C4E
:1031400036048019264679416E438919F8BD30B49A
:103150007446641E2578641CAB4200D21D46635D34
:103160005B00E31830BC18474900CA020243100054
:1031700000D004204A0D01D001221043044A490D19
:10318000914201D102210843012800D10520704756
:10319000FF0700008307FF22DB0E9A408907090E14
:1031A0009940002808DB830809489B001B18186811
:1031B00090430843186070470007000F08388308E1
:1031C00004489B001B18D86990430843D861704796
:1031D00000E400E000ED00E030380A2801D20120D0
:1031E000704700207047000070B5134D0446FF2162
:1031F000012205312846FEF777FE022000F03CF858
:10320000FF260136012C02D0022C07D010E000224C
:1032100004212846FEF768FE012205E00122042170
:103220002846FEF761FE002231462846FEF75CFE86
:10323000022000F021F870BD0004005000B50D49D7
:103240004A6970239A434A61C20703D04A6910232E
:103250001A434A61820703D54A6920231A434A6107
:10326000400703D54869402210434861052000F01B
:1032700003F800BD0004005008B5002100010091D2
:1032800002E000BF491C00918842FAD808BD000046
:1032900070B505242407002202212046FEF724FEF3
:1032A000002210212046FEF71FFE0022202120468A
:1032B000FEF71AFE0121002209032046FEF714FE44
:1032C00001210022C9022046FEF70EFE0022402105
:1032D0002046FEF709FE002280212046FEF704FE6C
:1032E000104D002201212846FEF7FEFD012100229B
:1032F00049022046FEF7F8FD0121002289022046FE
:10330000FEF7F2FD002202212846FEF7EDFD002225
:1033100004212846FEF7E8FD002280212846FEF71A
:10332000E3FD70BD00040050014610B50520000704
:103330001A4C0B00FFF70BFF0E31080B0E11141780
:103340001A1D202326292C310122022123E00122EB
:10335000102120E0012220211DE0012211031AE0AA
:103360000122D10217E00122402114E00122802134
:1033700011E0012211460DE0012251020BE0012271
:10338000910208E00122022104E00122042101E06F
:10339000012280212046FEF7A7FD10BD0004005049
:1033A000F8B506460025006801240090A700F059F2
:1033B000009900F01BF902D2F05925460090641CD8
:1033C000E4B20D2CF2D3FFF763FF6D1CE8B2FFF7F8
:1033D000ABFFF8BDFEF79CFDFFF7EFFBFFF74CFBE3
:1033E000FFF712FBFFF78CFBFFF7C2FB0548FFF767
:1033F00087F90548FEF796FC00F00AF80348FFF746
:10340000CFFFF9E754010020F00000201000002059
:103410007CB52849002008700120FFF7E5FE254D06
:103420000024343D2046FFF709FF00F04FF8A100CB
:103430006850FDF719F900901E480191621C1EA109
:103440009630FCF741FF1B491A489631FDF730F8DA
:10345000641CE4B2082CE5D30220FFF7C5FE00246B
:103460002046FFF7EBFE00F031F8A1004919086291
:10347000FDF7FAF800900F482246019109320EA19B
:103480009630FCF721FF0B490A489631FDF710F8FA
:10349000641CE4B2052CE3D30AA10648FDF708F842
:1034A0000448FCF7E3FF82B2642302490648FFF7B1
:1034B00023FA7CBD4400002025643A252E32662084
:1034C000000000000D0A0000A001002070B50024DB
:1034D00025460A210B48FEF7C3FB0A48FEF77EFA91
:1034E0006D1C0419ADB2322DF3D332212046FDF705
:1034F0000BF8FDF7BFF9044900F020F80349FDF788
:10350000DDF870BDF00000203333534000F07F45FC
:1035100010B500290AD00878002807D0054878445B
:10352000FEF772F8002801D0002010BD0248784450
:1035300010BD0000A20200009A02000070B5420017
:1035400064414B005C41120E39D01B0E38D0FF2A6B
:103550003CD0FF2B3AD040024902400A490A0600FB
:1035600045184E43000A090AD2184843ED017F3A34
:103570000104731A4019190C4318990F04D0012142
:103580005B0849075B1A521CD80904D3401CF50399
:1035900001D19D0607D0FF2A08D2D50506D0E40741
:1035A0002043401970BD0125A843F4E7002A01DC3F
:1035B000E00770BD2402FF202043C00570BD1B0E34
:1035C000FF2A03D0FF2B01D0E00770BDFF26450086
:1035D0003606B54206D84D00B54203D8D218FF2AA8
:1035E00000D0E7E7004870BD0000C07F01230A005B
:1035F000DB0502430DD4DA4203D49A4207D4814258
:103600007047D94214D4D84212D4814270478942BB
:103610007047DA4203D59A42F9D5884270475B0079
:103620004A00DA4204D24200DA4201D288427047AC
:103630004840414010B5024A4840FDF7B5FB10BD77
:103640000900160403B402487844844603BC60476A
:103650007FD4FFFF010002000400060008000A00FA
:103660000C0010002000400080000001000000005D
:10367000000000000000000000000000000000004A
:103680000000000000000000000000000100000039
:10369000020000000300000004000000060000001B
:1036A0000700000008000000090000000000000002
:1036B0000000000000000000000000000100000009
:1036C00002000000030000000400000081828384E7
:1036D00085868788898B8C8D8E8F9192939596970E
:1036E000999A9C9D9FA0A2A3A5A7A8AAACAEB0B290
:1036F000B3B5B7B9BCBEC0C2C5C7C9CCCED1D4D78B
:10370000D9DCDFE2E6E9ECF0F3F7FAFE0240000074
:10371000000000A00000000005400000000000C8FC
:10372000000000000C4000000000409C0000000071
:10373000194000000020BCBE000000003440000022
:10374000BFC91B8E00000004B5400000504BCFD015
:103750006607E2CF010000006C4100003E8251AAE2
:10376000DFEEA73401000000D9420000DCB5A0E282
:103770003A301F97FFFFFFFFB4450000FD25A0C8AA
:10378000E9A3C14FFFFFFFFFFF3F000000000080E3
:1037900000000000FF3F000000000080000000006B
:1037A000DC370008000000201000000004010008C1
:1037B000EC370008100000208808000020010008F5
:1037C0001C00000043000000F8FFFFFF0C00000099
:1037D0000E0000000F0000002E000000010000009D
:0C37E00004000000000000000024F400C1
:04000005080000C12E
:00000001FF
